:020000040800F2
:10000000380500209D010008F3280008A3230008FC
:10001000F1280008290500088D31000800000000C3
:10002000000000000000000000000000A9300008EF
:10003000350600080000000015290008AB30000854
:10004000B7010008B701000881310008B7010008B6
:10005000B7010008B70100081508000831080008BA
:10006000370800083D080008B7010008B70100087C
:10007000B7010008B7010008B7010008B701000880
:10008000B7010008B7010008B7010008B701000870
:10009000B7010008B7010008B701000843080008CD
:1000A000B7010008B7010008B7010008B701000850
:1000B000B7010008B7010008B7010008B701000840
:1000C000B7010008B7010008B7010008B701000830
:1000D000B7010008B7010008B7010008B701000820
:1000E0001B080008812D0008B7010008B7010008AF
:1000F000B7010008B7010008B7010008B701000800
:10010000B7010008B7010008B7010008B7010008EF
:10011000B7010008B7010008B7010008B7010008DF
:10012000B7010008B7010008B7010008B7010008CF
:10013000B7010008B7010008B7010008B7010008BF
:10014000B7010008B7010008B7010008B7010008AF
:10015000B7010008B7010008B7010008B70100089F
:10016000B7010008B7010008B7010008B70100088F
:10017000B7010008B7010008B7010008000000003F
:10018000B7010008B7010008DFF80CD000F040F814
:10019000004800478D390008380500200648804790
:1001A00006480047FEE7FEE7FEE7FEE7FEE7FEE75C
:1001B000FEE7FEE7FEE7FEE73D31000889010008A3
:1001C000D2B201E000F8012B491EFBD27047002299
:1001D000F6E710B513460A4604461946FFF7F0FF46
:1001E000204610BD30B50B460146002020220124D8
:1001F00009E021FA02F59D4205D303FA02F5491BF5
:1002000004FA02F52844151EA2F10102F1DC30BD0A
:10021000064C074D06E0E06840F0010394E8070053
:1002200098471034AC42F6D3FFF7B2FFC43F000842
:10023000E43F000870B5094D094E002435F814104C
:1002400056F8240000F023FC012805D0641CE4B219
:10025000052CF3D3052070BD204670BD7A3F000801
:10026000340000202DE9F04F002487B00646254DCC
:10027000DFF894A003274FF00209DFF8908012E026
:100280008CB1032C0FD0012C0DD0022C0BD0042CE0
:1002900009D000BF38F81400CDE9029700905EB194
:1002A000012E11D025E0E86C40F00100E864E86C14
:1002B00000F001000590EDE7002001905AF82400BD
:1002C000694600F0FFFA14E0114801905AF8240042
:1002D000694600F0F7FADFF834B00022ABF1060B04
:1002E00001211BF9040000F035FF1BF9040000F0A8
:1002F00026FF641CE4B2052CC2D307B0002000F036
:1003000009B8000000100240340000207A3F0008C5
:100310000000211030BCBDE8C08F0000014800F093
:10032000DFBD0000EC00002070B50546002408E0A9
:10033000002223461146284602F02AFF641CE4B23C
:100340006D1C287808B1052CF2D9BDE87040014831
:1003500000F085BEEC000020114810B50F49016087
:1003600000214FF47012C0E901120C22C2604FF458
:10037000A05340228361C0E90421C0E907121202A0
:100380004162C0E90A12016302F016FA044800F063
:10039000E7FDBDE81040024800F0A2BD0024004087
:1003A000EC0000202DE9FC5F0025324F00950195FF
:1003B00093468946AA463D7000284DD0014602E08A
:1003C0006D1CEDB2491C0A78002AF9D10446684632
:1003D000FFF7AAFF584600F037FA002647E0002052
:1003E00041E0411CB1FBF5F2884605FB1211615C4E
:1003F0008DF80010811CB1FBF5F205FB1211615C58
:100400008DF80110C11CB1FBF5F205FB1211615C06
:100410008DF80210011DB1FBF5F205FB1211615CB4
:100420008DF80310411DB1FBF5F205FB1211801D83
:10043000615C8DF80410B0FBF5F105FB1100205C48
:100440008DF805000C4800F04BFD6846FFF76CFF87
:10045000387818B187F800A000F010B8584600F0BE
:10046000F3F908F0FF00A842BBD3761CF6B24E4564
:10047000B5D3F1E721000020EC0000203CBCBDE832
:10048000C09F000030B50400174887B002D0012C8F
:1004900008D00FE0C16C41F00201C164C06C00F0F3
:1004A000020006E0C16C41F01001C164C06C00F0B4
:1004B000100005900D480E4D694630F8140000906C
:1004C00001200190002002900320039055F82400A1
:1004D00000F0F8F90098002281B255F8240000F0ED
:1004E000DFFA07B030BD000000100240703F000886
:1004F0002C0000200449054A31F8101052F8200061
:10050000012200F0CDBA0000703F00082C0000204E
:100510000349044A31F8101052F8200000F0BCBA28
:10052000703F00082C000020FEE7000070B500239B
:1005300000781C46342817D00FDCA0F12005142DBC
:1005400024D2DFE805F035232323235623233B3D24
:10055000384E234B235111111111642832D009DC7C
:10056000A0F13505042D11D8304B03EB400030F8D5
:10057000603C1DE0B02839D004DC6D2825D06E2801
:1005800004D125E0B52826D0FF2835D0274DA0F18D
:100590004106343D1A2E03D205EB400333F8823C6A
:1005A000A0F161061A2E03D205EB400030F8C23CE0
:1005B000012924D025E04AF2DD03F9E72823F7E7F3
:1005C0001123F5E74FF47343F2E74BF21023EFE703
:1005D00042F21023ECE746F28403E9E74FF42043AC
:1005E000E6E74AF21403E3E7C023E1E74FF46C4384
:1005F000DEE74FF43343DBE74FF6DD73D8E743F034
:100600000203012A01D143F0200309490C2000BF55
:1006100023FA00F202F00F0241F82420001F641CAC
:10062000E4B2C0B2042CF3D370BD00005C3F0008FC
:100630002801002070470000F8B5054602F060FB75
:100640003A4CA08A062805D2FFF768FE38A0FFF7CB
:100650006BFE65E0A08AA021401E82B2364801F000
:10066000A1FEA071A08AA021801E82B2324801F0B2
:1006700099FE6071A08AA021C01E82B22E4801F0AE
:1006800091FE207100902C486379A2792BA1183833
:1006900002F0AEFFFFF742FE2CA0FFF745FE4FF43D
:1006A000FA76304600F0D0F8FFF738FE22481838C6
:1006B000FFF73AFE304600F0C7F8A08AA021001FDD
:1006C00082B21D4801F06EFEA071A08AA021401FD9
:1006D00082B2194801F066FE6071A08AA021801FD5
:1006E00082B2154801F05EFE2071009012486379D5
:1006F000A27912A1183802F07BFFFFF70FFE15A0B8
:10070000FFF712FE304600F09FF8FFF707FE0A4899
:100710001838FFF709FE304600F096F8FFF7FEFDA7
:100720002846BDE8F84002F00BBB000000000020A6
:10073000544F4F4645570000680000202530327561
:1007400025303275253032750000000074696D6502
:100750003100000074696D653200000010B5044678
:1007600001222A4901F0A4FB01222949204601F077
:100770007DFB2648264C163C8378237141786171B5
:100780000078A071A28A2148A021703801F022FED1
:10079000A07218B11D48703801F044FEA08A637938
:1007A000401C82B21948A021703801F013FEA072DB
:1007B00018B11648703801F035FEA08AA379801C64
:1007C00082B21248A021703801F004FEA07218B164
:1007D0000E48703801F026FEA08A4FF6FD7188425F
:1007E00002D2A08AC01C00E00120A082A08A0022C0
:1007F000C3B20648A021703801F0ECFDA07218B118
:100800000248703801F00EFEA07A10BDD80000201A
:1008100016000020012000F049B810B54FF48040C8
:1008200000F044F8BDE810404FF4006000F03EB81E
:10083000022000F03BB8042000F038B8082000F097
:1008400035B8202000F032B870B5044600F02EF91B
:100850000546601C00D0641C00F028F9401BA04233
:10086000FAD370BD0121104A082816D007DC0128F0
:100870000FD002280FD0042800D111737047202810
:100880000DD0B0F5006F0CD0B0F5804FF6D11174DB
:100890007047D1737047D17270475173704791732D
:1008A000704751747047000000000020044910B5E3
:1008B0000A68024202D00860FFF7D4FF10BD0000B2
:1008C000140401402DE9F84FDFF898B100234FF0F0
:1008D000010C4FF0030A4FF00F090BF1040EB9E0C1
:1008E0000CFA03F4224070D04D68022D01D0122D75
:1008F0000ED1DD0800EB8508D8F820505E07F70E12
:1009000009FA07F6B5430E69BE402E43C8F82060C9
:1009100007685E0091F804800AFA06F508F00308FB
:10092000AF4308FA06F848EA0708C0F800804F68A5
:10093000012F05D0022F03D0112F01D0122F13D178
:10094000D0F80880CF6828EA0508B74047EA0807CA
:100950008760D0F804800F7928EA0408C7F30017ED
:100960009F4047EA08074760D1F804806FEA08070C
:10097000BF0706D1C76AA743C8F3C0049C403C43E5
:10098000C462C468AC438D68B5402543C5604C68FB
:10099000E4005ED5344C256E45F001052566246ED5
:1009A00023F0030504F001040094304C2E19B468C0
:1009B0009D072F0F09FA07F5AC43B0F1904F05D012
:1009C0002B4DA84204D101251CE042E0002519E08E
:1009D000284DA84201D1022514E0274DA84201D19B
:1009E00003250FE0254DA84201D104250AE0244D3E
:1009F000A84201D1052505E0224DA84201D10625D6
:100A000000E00725BD402543B560DBF800405D46AA
:100A10004E689443F60300D514432C60DEF8004082
:100A200075464E689443B60300D514432C600D4DB3
:100A300008352C684E689443F60200D514432C60A8
:100A4000084D0C352C684E689443B60200D514430B
:100A50002C605B1C0A6832FA03F57FF441AF00F0AA
:100A600013B80000000401400010024000000140E3
:100A70000004004800080048000C0048001000482E
:100A8000001400480018004818BCBDE8E08F006959
:100A9000084000D00120704742694A4042617047D7
:100AA0000AB18161704781627047000001480068A7
:100AB000704700004800002010B5040013D0242027
:100AC00084F841002068016821F00101016020469E
:100AD00000F0DBF90020606484F8410044F8300F36
:100AE000A074207410BD012010BD90F84100704723
:100AF00070B5040004D094F84100002510B106E060
:100B0000012070BD84F84050204600F0BFF9242039
:100B100084F841002068016821F0010101606068EB
:100B2000216820F0706008612068816821F400412C
:100B30008160E0680128A06807D040F40440216883
:100B40008860E068022803D006E040F40040F6E741
:100B500021684FF40060486020684168114A1143E1
:100B600041602068C16821F40041C160D4E90401FA
:100B70000843A16940EA01202168C860D4E907015F
:100B80000843216808602068016841F001010160A4
:100B90006564202084F84100256384F842500020D9
:100BA00070BD0000008000022DE9FF4F83B00446B5
:100BB000DDE9108790F84100DDF848909A469346A9
:100BC000202875D15FEA080073D0002F71D094F807
:100BD000400001286CD0012084F84000FFF766FF38
:100BE0000646012200901923D103204601F06AFD38
:100BF000002875D1222084F84100402084F842006A
:100C000000256564C4F8248067856563CDE9009696
:100C100053465A462046049901F0D4FC28B1606C32
:100C200084F8405004285FD05AE0618DFF274FF4CC
:100C300010504FF080784FF0007AFF2904D92785B3
:100C40003A464346009005E0618D2185009094F876
:100C5000282053462046049901F022FD4B460022ED
:100C600004212046009601F02DFDC8BB2068416A92
:100C7000606A421C62620170208D401E0004000CFC
:100C80002085618DA1F1010161851DD1608DD8B1F3
:100C90004B46002280212046009601F013FDF8B952
:100CA000608DFF2806D927853A464346009507E020
:100CB0002CE019E0608D2085009594F8282053469B
:100CC0002046049901F0ECFC608D0028C6D1324624
:100CD0004946204601F01FFD40B1606C042803D056
:100CE000032007B000F016B80120FAE721682020A1
:100CF000C86121684A68064B1A404A6084F841007E
:100D000084F8425084F840500020EAE70220E8E7E7
:100D100000E800FE30BCBDE8C08F00002DE9FF4FA9
:100D200083B00446DDE9108790F84100DDF8489073
:100D30009A469346202870D15FEA08006ED0002FB3
:100D40006CD094F84000012867D0012084F840005E
:100D5000FFF7ACFE0646012200901923D10320467E
:100D600001F0B0FC002854D1212084F8410040203B
:100D700084F8420000256564C4F8248067856563B3
:100D8000CDE9009653465A462046049901F051FC9D
:100D900028B1606C84F8405004286CD039E0608D34
:100DA000FF274FF080784FF0007AFF2804D927857D
:100DB0003A464346009505E0608D2085009594F8FD
:100DC000282053462046049901F06AFC32464946E1
:100DD000204601F0C7FC18B1606C04284BD018E025
:100DE000606A411C6162216800788862608D401EE3
:100DF0006085208D401E0004000C208521D1608D6F
:100E0000F8B14B46002280212046009601F05AFCA2
:100E100028B1032007B000F035B82EE02BE0608D3C
:100E2000FF2804D927853A464346009505E0608DA2
:100E30002085009594F8282053462046049901F017
:100E40002FFC608D0028C1D132464946204601F072
:100E500062FC0028C0D121682020C86121684A684E
:100E6000074B1A404A6084F8410084F8425084F8E5
:100E700040500020CEE70120CCE70220CAE7000066
:100E800000E800FE30BCBDE8C08F7047704700002E
:100E900002480168491C01607047000048000020BA
:100EA00010B5032000F076F90F2000F005F800F0EF
:100EB00045F9002010BD000010B5044607484FF466
:100EC0007A710068B0FBF1F001F057FA0022214678
:100ED000501E00F03FF9002010BD00004C00002023
:100EE0002DE9F041044690F83500012806D094F829
:100EF0003500022802D00120BDE8F08194F83400CA
:100F000001280CD0012084F83400022784F83570C1
:100F1000FFF7CCFD06464FF47A7800250CE002205E
:100F2000EAE700BFFFF7C2FD801B404504D9A76375
:100F300084F834500320DFE720688068C04340070E
:100F4000F0D500205FF01401226801EB8003D5503A
:100F5000401C0F28F8D9204600F081F80020CBE78C
:100F60002DE9F04104004FF0000504D094F835005D
:100F7000002618B107E00120BDE8F08184F8346054
:100F8000204600F06BF8022084F8350020680168E4
:100F900021F0010101601420216800EB85028E50D0
:100FA0006D1C0F2DF8D92068816841F00401816023
:100FB000D4E901010843D4E90A1211430843E16965
:100FC0000843216A0843A1690843616A084321680C
:100FD0004A68214B1A4010434860204601F070FCDB
:100FE000D4E903100143226B606910430143206878
:100FF000026822F0FE02114301602068016841F09E
:1010000001010160FFF752FD05464FF47A7706E0D3
:10101000FFF74CFD401BB84201D908200EE02068C4
:101020008068C043C007F3D1FFF740FD054608E0E4
:10103000FFF73CFD401BB84203D91020A0630320FA
:101040009AE720688068C043C006F1D4A6630120F7
:1010500084F8350000208FE70E0000FC70472DE972
:10106000F041044608202168C8602068816841F08A
:1010700004018160FFF71AFD054600264FF47A77D8
:101080000BE0FFF713FD401BB84206D90420A06314
:1010900084F834600320BDE8F08120688068C04394
:1010A0000007EED4012084F8350084F83460002075
:1010B000F1E700002DE9F047044690F835009A4624
:1010C00090468946012806D094F83500022802D0BF
:1010D0000120BDE8F08794F83500012822D194F86A
:1010E000340001280BD0012084F83400022684F853
:1010F0003560FFF7DBFC05464FF47A770DE0022000
:10110000E7E700BFFFF7D2FC401BB84205D9A66352
:10111000002084F834000320DBE720688068C043A7
:101120004007EFD51422216802EB89000A5802EA31
:10113000080242EA0A020A500020CAE7704700F09B
:101140001F02012191404009800000F1E020C0F819
:1011500000117047F0B40E4B1B680C46C3F302231A
:10116000C3F10705042D00D90425191D072901D253
:10117000002300E0DB1E012606FA05F1491E21408E
:1011800099409E40761E16403143F0BC01F0B2BB40
:101190000CED00E0064900F0070208684FF6FF0377
:1011A000184040EA0220034A1043086070470000DC
:1011B0000CED00E00000FA051549B0F5007F086865
:1011C000C0F3412009D0022805D0086820F4C0608F
:1011D00040F480600860002070470128FBD0086858
:1011E00020F4C06040F4007008600A480A4A0068B1
:1011F000B0FBF2F03222504300E0401E10B14A69C9
:101200005205FAD448694005E5D50320704700002F
:10121000007000404C00002040420F00024841682E
:1012200041F400714160704700700040024800685E
:1012300000F4C06070470000007000400248016880
:1012400041F4807101607047007000402DE9F84F53
:10125000044600270088E54D3E46010504F1200BB9
:101260001DD5606E78B1B0F5800F11D0B0F5000FCC
:1012700004D0B0F5400F22D001270FE0E86840F419
:101280008030E8601BE00021201D01F07DFB03E0C1
:101290000021584601F02CFC070010D03E46208863
:1012A000C00426D5A06EC0B1B0F1807F1AD0B0F1D5
:1012B000007F0DD0B0F1407F19D0012718E0D5F89C
:1012C0008800616E20F440000843C5F88800E6E716
:1012D000E86840F48030E86009E00021201D01F05A
:1012E00053FB03E00021584601F002FC0746F7B12A
:1012F0003E46206880033AD5A86D4FF00008C00034
:1013000009D4A86D40F08050A865A86D4FF0010881
:1013100000F080500090DFF8D8A2DAF8001041F415
:101320008071CAF80010FFF7C1FB814610E0D5F8C4
:101330008800A16E20F040700843C5F88800D8E707
:10134000FFF7B4FBA0EB0900022801D9032705E051
:10135000DAF80000C005F3D5002F7CD04FEA07066D
:10136000B8F1000F03D0A86D20F08050A865207858
:10137000C00707D0D5F88800A16B20F00300084310
:10138000C5F888002078800707D5D5F88800E16B7C
:1013900020F00C000843C5F888002078400707D5E6
:1013A000D5F88800216C20F030000843C5F888008B
:1013B0002078000707D5D5F88800616C20F0C000C0
:1013C0000843C5F888002078C00607D5D5F88800FE
:1013D000A16C20F440700843C5F88800207880068E
:1013E00007D5D5F88800E16C20F440600843C5F8C3
:1013F00088002088800507D5D5F88800E16D20F4A5
:1014000040200843C5F888002088400507D5D5F856
:101410008800216E20F440100843C5F88800207829
:10142000400607D5D5F88800216D20F440500843C8
:10143000C5F888002078000607D5D5F88800616DCA
:1014400020F440400843C5F888002088C00509D52D
:10145000D5F8880000E01CE0A16D20F4403008437E
:10146000C5F8880020884FF0006780044FF080683E
:101470004FD5D5F88800E16E20F040600843C5F8EC
:101480008800E06EB8423CD1E86840F48010E86023
:101490003FE0D5F8900010F4407015D0D4F88410D7
:1014A000814211D0D5F89000D5F8901020F440700A
:1014B00041F48031C5F89010D5F8901021F48031B6
:1014C000C5F89010C5F89000C00710D0FFF7EEFAED
:1014D000074641F2883906E0FFF7E8FAC11B4945A3
:1014E00001D903263CE7D5F890008007F4D5D5F85C
:1014F0009000D4F8841020F440700843C5F89000A0
:101500002EE7404505D10121201D01F03DFA00B133
:1015100006462068000317D5D5F88800216F20F013
:1015200040600843C5F88800206FB84204D1E868DD
:1015300040F48010E86007E0404505D10121201DFE
:1015400001F022FA00B106462068400317D5D5F80D
:101550008800616F20F040600843C5F88800606F24
:10156000B84204D1E86840F48010E86007E04045E4
:1015700005D10121201D01F007FA00B1064620889F
:1015800040041AD5D5F88800A16F20F040500843D8
:10159000C5F88800A06FB0F1805F03D0B0F1005FA4
:1015A00005D00AE00221201D01F0EEF903E002213E
:1015B000584601F09DFA00B106462088000407D580
:1015C000D5F88800E16F20F080400843C5F8880016
:1015D0002068C00307D555F8880FD4F8801020F094
:1015E000004008432860304600F004B80010024074
:1015F0000070004018BCBDE8E08F00002DE9F04706
:10160000DFF8688105460E46D8F8000000F00700B4
:10161000B0420CD2D8F8001021F007013143C8F8CD
:101620000010D8F8000000F00700B04274D128780C
:101630004F4C800705D5A068A96820F0F00008434A
:10164000A0602878C00756D06868022818D0032800
:1016500019D02168D0B1490500295DDAA16821F0CF
:1016600003010143A160FFF721FA6968074641F2CF
:101670008830022912D003291ED0814649B335E0B3
:1016800021688903E8E721688901E5E78907E3E73D
:10169000FFF70CFAC11B494501D924E08146A06837
:1016A000C0F381000228F3D125E000BFFFF7FEF967
:1016B000C11B494501D916E08146A068C0F38100ED
:1016C0000328F3D117E000BFFFF7F0F9C11B49452C
:1016D00009D8A06810F00C0FF6D10CE0FFF7E6F97E
:1016E000C11B494502D90320BDE8F087A068C0F3BB
:1016F00081000128F2D1D8F80010404601F007011E
:10170000B1420BD9016821F0070131430160006843
:1017100000F00700B04201D00120E5E7287840073B
:1017200005D5A068E96820F4E0600843A060287847
:10173000000706D5A068296920F4605040EAC1007E
:10174000A06000F01BF8A168F02292FAA2F201F06A
:10175000F001B2FA82F2D140064A515CC840064913
:1017600008600F20FFF7A8FB0020BDE70020024023
:1017700000100240843F00084C00002070B53B4937
:10178000002318468A683A4C12F00C0F4FEA6405A1
:1017900014D08A68C2F38102032A04D1CA6802F015
:1017A0000302012A0AD08A68C2F38102012A21D0E9
:1017B0008A68C2F38102022A1ED01EE00A6812075C
:1017C00006D4D1F894204FF4706302F4706203E001
:1017D0000A68F02302F0F00293FAA3F3B3FA83F35A
:1017E000DA40244B53F822308A6812F00C0F04D1EF
:1017F000184602E0204600E028468A68C2F38102CB
:10180000032A31D1C868CA6800F00300702696FA2E
:10181000A6F602F07002B6FA86F6F240521C4FF4B9
:10182000FE46022804D0032805D0B3FBF2F004E002
:10183000B4FBF2F001E0B5FBF2F0CA6896FAA6F349
:1018400002F4FE42B3FA83F3DA40C96850434FF022
:10185000C06292FAA2F201F0C061B2FA82F2D14003
:10186000491C4900B0FBF1F070BD000000100240BF
:101870000024F400943F00082DE9F8430446007862
:10188000FE4DC00663D5A86810F00C0F0AD0A06901
:101890000028286878D040F001002860FFF706F99A
:1018A00006465AE02868800702D5A06900286AD059
:1018B000216A28684FF0F006000703D5286800F079
:1018C000F00003E0D5F8940006EA1010814216D922
:1018D000084601F0ABF9002855D1286840F008000F
:1018E00028602868216A20F0F000084328606868B2
:1018F000E16920F47F4040EA0120686015E0286833
:1019000040F0080028602868216A20F0F0000843B1
:1019100028606868E16920F47F4040EA012068603F
:10192000206A01F083F90028D6D1FFF727FFA968C4
:1019300096FAA6F201F0F001B2FA82F2D140D04A52
:10194000515CC840CF4908600F20FFF7B5FA2BE083
:10195000FFF7ACF8801B02287ED828688007F7D5EF
:10196000286840F0080028602868216A20F0F0000C
:10197000084328606868E16920F47F4040EA01205C
:10198000686011E000E0B7E020F001002860FFF798
:101990008DF8064605E000BFFFF788F8801B022897
:1019A000DAD828688007F7D42078C00748D0A8681C
:1019B000C0F3810002281DD0A868C0F3810003286D
:1019C00003D1E868C043800714D06068B0F5803F59
:1019D00017D0B0F5A02F286817D020F480302860E9
:1019E000286820F4802028606068E0B1FFF75EF886
:1019F000064614E02868800322D5606800287BD062
:101A00001EE0286840F48030EDE740F48020286034
:101A1000F7E700BFFFF74AF8801B64289CD82868C6
:101A20008003F7D50CE0FFF741F8064605E000BF5C
:101A3000FFF73CF8801B64288ED828688003F7D411
:101A40002078800748D5A8684FF0F857C0F3810088
:101A5000012816D0A86800E0AFE0C0F38100032899
:101A600004D1E86800F0030002280AD0E0680028EA
:101A7000286821D040F480702860FFF717F80646E8
:101A80000BE0286840050BD5E0680028B7D007E0D8
:101A9000FFF70CF8801B0228C0D828684005F7D54E
:101AA000686897FAA7F22169B2FA82F220F0F8503A
:101AB0009140084368600FE020F480702860FEF7D2
:101AC000F5FF064605E000BFFEF7F0FF801B022889
:101AD00073D828684005F7D42078000729D56069B5
:101AE0000028D5F8940013D040F00100C5F8940008
:101AF000FEF7DCFF064606E0FBE000BFFEF7D6FF80
:101B0000801B022859D8D5F894008007F6D510E03C
:101B100020F00100C5F89400FEF7C8FF064604E077
:101B2000FEF7C4FF801B022847D8D5F89400800731
:101B3000F6D42078400763D5A86D0026C00008D4ED
:101B4000A86D40F08050A865A86D012600F0805077
:101B500000904D480168C90511D40168804641F4E0
:101B600080710160FEF7A2FF074604E0FEF79EFFCA
:101B7000C01B022821D8D8F80000C005F6D5A068FF
:101B8000012815D00528D5F8900017D020F00100C5
:101B9000C5F89000D5F8900020F00400C5F890003A
:101BA000A06841F28838C8B1FEF780FF074610E010
:101BB000D5F8900040F00100F0E75EE040F004004E
:101BC000C5F89000F4E700BFFEF770FFC11B414568
:101BD00053D8D5F890008007F6D50CE0FEF766FFE5
:101BE000074604E0FEF762FFC11B414579D8D5F8EE
:101BF00090008007F6D41EB1A86D20F08050A86533
:101C0000A06AC8B3A968C1F38101032972D0022870
:101C1000286820F08070286011D02868000106D460
:101C20002868800003D4E86820F00300E860E868D2
:101C300016490840E860FEF739FF044654E0FEF715
:101C400035FF064605E000BFFEF730FF801B022887
:101C500047D828688001F7D4206BE16A000110386A
:101C60000843616BA26B0902120941EA4241084331
:101C7000A18F074A49080DE039E032E00010024028
:101C8000843F00084C00002000700040FFFFEEFE83
:101C90000000E0FF02EB4151084394F8401049086E
:101CA000120102EB41610843E860286840F080704F
:101CB0002860E86840F08070E860FEF7F7FE0446B0
:101CC00005E000BFFEF7F2FE001B022809D82868D5
:101CD0008001F7D50BE000BFFEF7E8FE001B0228ED
:101CE00002D90320BDE8F88328688001F4D40020DD
:101CF000F8E7FFE70120F5E7704770477047704746
:101D00002DE9F041334904464FF4002008608D135B
:101D1000061D314F40E0816809040CD5C0680005FC
:101D200009D5204600F05AF82068C16801F080010A
:101D300061F40861C1602068016C29420BD0C16860
:101D4000890408D5C16801F0800161F40251C160C5
:101D50002046FFF7D2FF2068016C31420BD0C168EA
:101D6000490408D5C16801F0800161F48141C16076
:101D70002046FFF7C3FF2068016C39420CD0C168D0
:101D8000090409D5C16801F08001A1F5004181393C
:101D9000C1602046FFF7B3FF20688168090402D5BF
:101DA000C1680905B7D4016C294202D0C168890411
:101DB000B1D4016C314202D0C1684904ABD4016C8A
:101DC000394202D0C1680904A5D4012084F8210059
:101DD000BDE8F0811404014004004000704710B5D4
:101DE00004460120FEF794FBFEF798FA2046BDE872
:101DF000104001F02DB9000010B51B4904464FF406
:101E0000802008601EE08868C0040BD5C868C00543
:101E100008D5C86800F0800060F4C070C860204633
:101E2000FFF7DDFF2068816889040BD5C16889054B
:101E300008D5C16801F0800161F42071C1602046BD
:101E4000FFF75AFF21688868C00402D5C868C0053A
:101E5000D9D48868800402D5C8688005D3D401200D
:101E600084F8210010BD00001404014010B5006882
:101E70000B4641680D480140080CD870C1F304249A
:101E80005C7001F03F049C70C1F342311970012A6B
:101E90000AD100F07BFFD870587800F077FF5870B7
:101EA000987800F073FF9870002010BD3FFFFF008E
:101EB00010B50B460168896A596001680969C1F368
:101EC0000E019960006801680E480140C1F30540A9
:101ED0001870C1F306245C7001F07F049C704024EC
:101EE00004EA1141D970012A0AD100F04FFF18709D
:101EF000587800F04BFF5870987800F047FF9870C2
:101F0000002010BD7F7F7F0070B5040003D094F8DF
:101F1000210010B107E0012070BD002084F82000EE
:101F2000204600F04DF8022084F821002168CA20E4
:101F30004862216853204862204601F06BF8FF2573
:101F4000042618BB206881681C4A11408160216802
:101F500088686268A369104322691A431043886045
:101F60002168E068086120680169228941EA02412C
:101F700001612068C16821F08001C160206880682B
:101F8000800608D4204600F0DDF920B120684562C3
:101F900084F82160BFE72068C16C21F00301C164AF
:101FA0006169E06908432168CA6C1043C86420680D
:101FB0004562012084F82100002070BDBFFF8FFF23
:101FC000704700002DE9F05F044690F820000B46B2
:101FD00001284AD04FF0010A84F820A0022084F89A
:101FE000210020680026012A80684FEA40603FD027
:101FF000002857DA187800F0C9FE00BF93F82000D7
:1020000000F0C4FE98781978DA7840EA01405978EF
:10201000090241EA0241084393F8201040EA0165B1
:10202000D8695F6805435869216805439869074383
:10203000CA204862216853204862586A4FF0FF085E
:10204000B0F5807F20684FF47A7B81682CD021F432
:10205000007181602068C16801F0800161F4207125
:10206000C160FEF723FD814653E0022000F07AB8FC
:10207000002800DBDE70187800F091FE020458782A
:1020800000F08DFE42EA0022987800F088FE0243BC
:10209000D87842EA004293F8200000F080FE42EA3D
:1020A0000065BDE7DE70A9E721F4807181602068DA
:1020B000C16801F0800161F4C071C160FEF7F6FCF7
:1020C000814605E0FEF7F2FCA0EB0900584517D861
:1020D0002068C068C007F5D02068C56120684764E3
:1020E0002068816841F4807181602068816841F4D2
:1020F00080511FE0FEF7DAFCA0EB0900584508D933
:102100002168C1F82480032084F8210084F820602D
:10211000ACE72068C0688007ECD5206805622068BD
:1021200087642068816841F400718160206881685B
:1021300041F4005181600A48016841F48021016046
:1021400007480830016841F4802101602168C1F826
:10215000248084F821A084F82060002086E7000015
:102160000004014030BCBDE8C09F00002DE9F047ED
:10217000044690F820000B46012827D04FF00109B3
:1021800084F82090022084F821005878012A20D079
:1021900000F0FCFD987800F0F9FD9878D97840EAD5
:1021A000014558781978000240EA4130054321681A
:1021B000CA204862216853204862204600F02AFF66
:1021C0000026FF274FF0040858BB19E00220BDE8A5
:1021D000F087C10603D500F0EF000A305870D878B8
:1021E00000F0DDFD0204587800F0D9FD42EA00223B
:1021F000987800F0D4FD0243187842EA4035D6E7DB
:1022000010480540206845602068C16821F08001C1
:10221000C1602068806880060BD4204600F092F8E8
:1022200038B12068476284F8218084F8206001205A
:10223000CDE72068476284F8219084F82060002070
:10224000C5E700003FFFFF002DE9F047044690F886
:1022500020000D46012813D04FF0010A84F820A079
:10226000022084F8210020680026012A80684FEAB5
:10227000406008D000281ADA287800F087FD17E0BF
:102280000220BDE8F087002800DBEE70287800F01F
:1022900086FD0204687800F082FD42EA0022A878F8
:1022A00000F07DFD0243E87842EA00470AE0EE7064
:1022B000A878297840EA01476878E978000240EA7E
:1022C000014007432168CA204862216853204862C0
:1022D000204600F09FFE4FF0FF084FF00409E0B9E0
:1022E00017480740206807602068816821F4802132
:1022F0008160D5E90301084321688A68104388603A
:102300002068C16821F08001C16020688068800673
:102310000CD4204600F016F840B12168C1F82480A2
:1023200084F8219084F820600120AAE72168C1F890
:10233000248084F821A084F820600020A1E7000018
:102340007F7F7F0070B504460068C16821F0A0015E
:10235000C160FEF7ABFB05464FF47A7607E000BF9D
:10236000FEF7A4FB401BB04201D9032070BD2068DA
:10237000C0688006F4D5002070BD10B5401EB0F1D5
:10238000807F01D3012010BD4FF0E02460610F2158
:10239000601700F0AFFA0020A06107202061002044
:1023A00010BDFEE77FB5044600208DF80C0040F616
:1023B000B835012303A88DE8290002232046FEF743
:1023C000F3FB10B1204600F02DF89DF80C0004B08E
:1023D00070BD00003FB5054690F8410083B020284D
:1023E00002D0012007B030BD40F6B834012306A862
:1023F0008DE8190002232846FEF790FC084C207057
:1024000018B1284600F00EF807E02846FEF76DFBED
:102410002028FAD10A20FEF717FA2078E2E7000018
:102420002000002010B50446FEF746FB2046BDE81C
:10243000104000F011B801688A69D243920701D4B4
:1024400000228A6200688169C943C90703D0816993
:1024500041F001018161704710B50446FEF745FB6C
:10246000002815D10B4820600B4860600020012136
:10247000C4E9020120616061E061206200F04CF873
:102480002046FEF735FB00BF94F841002028FBD121
:1024900010BD000000540040262611902DE9F041A7
:1024A0000446006890460E468069C043C0062ED49C
:1024B0000025202720688069C043800611D5701C44
:1024C000F8D02EB1FEF7F2FAA0EB0800B042F1D935
:1024D00084F8417084F8425084F840500320BDE8ED
:1024E000F08121681020C8612068C7612046FFF78D
:1024F000A2FF54F8440B4168064A11404160042091
:1025000044F820096777A57725770120E7E70020C1
:10251000E5E7000000E800FE30B5284CA9B0A06D4A
:1025200040F08050A065A06D00F080502790FEF72D
:1025300075FE4025A014009514906846FEF786FEAF
:10254000E06C40F00200E064E06C22A900F00200C0
:1025500027901220CDE922500120249002202590BE
:102560000420174D26902846FEF7ACF980202290D3
:1025700022A92846FEF7A6F9A06D40F40010A06538
:10258000A06D00F400102790A06B40F40010A06331
:10259000A06B20F40010A063002201211F20FEF791
:1025A000D9FD1F20FEF7CBFD002201212020FEF7E0
:1025B000D1FD2020FEF7C3FD29B030BD0010024040
:1025C000000400482DE9F84304461646DDE9089763
:1025D0004FF400509846DAB200900023204600F0F5
:1025E0005FF83A464946204600F0BCF818B1606CE6
:1025F00004281CD018E0F5B2B8F1010F09D0216809
:10260000300A88623A464946204600F0ABF8002876
:10261000EDD1206885624B4600224021204600977C
:1026200000F050F8002800D00320BDE8F883012016
:10263000FBE72DE9F843044616464FF40050984650
:10264000DDE90897DAB2C3020090204600F028F8CE
:102650003A464946204600F085F818B1606C0428D7
:102660001CD018E0F5B2B8F1010F09D02168300A8A
:1026700088623A464946204600F074F80028EDD1B9
:10268000206885624B46002280212046009700F09A
:1026900019F8002800D00320BDE8F8830120FBE7EB
:1026A00070B50568049E6C6805480440C1F30900D4
:1026B00040EA0240184330432043686070BD000088
:1026C000009800FC2DE9F0411D4617460E460446D1
:1026D000DDF8188013E0681C11D02DB1FEF7E6F983
:1026E000A0EB0800A8420AD9202084F8410000206D
:1026F00084F8420084F840000320BDE8F08120689F
:10270000806936EA000004D00020B842E3D00020FF
:10271000F3E70120F9E770B516460D4604461AE0C6
:10272000324629462046FFF7B9FE08B1012070BDA8
:1027300025B1FEF7BBF9801BA8420CD954F8440F11
:1027400040F0200044F80409202060700020A070B0
:102750002070032070BD20688069C0438006DFD4EC
:10276000002070BD70B516460D4604461CE032468A
:1027700029462046FFF792FE08B1012070BD681C73
:1027800012D025B1FEF792F9801BA8420CD954F85B
:10279000440F40F0200044F804092020607000201D
:1027A000A0702070032070BD20688069C04380073E
:1027B000DDD4002070BD000030B5B9B0142122A8CE
:1027C000FDF705FD442127A8FDF701FD8821684696
:1027D000FDF7FDFC364CA06D40F08050A065A06D6B
:1027E000002500F08050389004203195279001207A
:1027F000299027A8FFF740F800B1FEE74FF400301A
:102800000090401221906846FEF720FDE06C40F0F9
:102810000100E064E06C00F001003890E06C40F0F2
:102820000200E064E06C00F002003890E06C40F0E0
:102830000400E064E06C00F004003890E06C40F0CC
:102840000800E064E06C22A900F00800389048F22B
:10285000C07022900220CDE92305032025900B2093
:1028600026904FF09040FEF72DF84FF23320229043
:1028700022A91048FEF726F84FF4FC70229022A9F6
:102880000D48FEF71FF84FF47F40229022A90B4815
:10289000FEF718F80220FDF7D7FFA06D40F4007096
:1028A000A065A06D00F40070389039B030BD000014
:1028B000001002400004004800080048000C0048D6
:1028C00070B50446FEF7F2F805464FF47A7608E054
:1028D000FEF7ECF8401BB04203D90120A0630320AF
:1028E00070BD20688068C0438006F1D4002070BDB0
:1028F000FEE770470907090E002806DA00F00F000E
:1029000000F1E02080F8141D704700F1E02080F80D
:10291000001470477047000030B5174887B0C16C8D
:1029200041F01001C164C06C032400F01000059058
:102930004FF4804000900220CDE902040F48104D72
:10294000019069462846FDF7BDFF4FF400600090F6
:102950000120CDE902040B48019069462846FDF7A5
:10296000B1FF002203212820FEF7F4FB2820FEF708
:10297000E6FB07B030BD000000100240000011105F
:1029800000100048000021102DE9F041544C05468C
:102990000F46E0680026820728684FF0700112D0C9
:1029A000E26802F0030282421BD1D0B1E06891FAE2
:1029B000A1F100F07000B1FA81F1C8406968401CD3
:1029C00088420ED122E0012804D0022805D0032835
:1029D00007D108E02268920701E022685205002A28
:1029E00007DB012678E02268920302D422685203B2
:1029F000F5E7E26891FAA1F122F073036A68B1FA8F
:102A000081F1521E8A4013430343E360206820F0A3
:102A100080602060FEF74AF8804605E0FEF746F841
:102A2000A0EB080002284ED820680001F6D44FF42D
:102A3000FE4017B390FAA0F0A968012FB0FA80F019
:102A40004FF0FF3201FA00F12AD0686902EB500022
:102A50004FF0C06292FAA2F2B2FA82F290400143C1
:102A60002069204A104001432161206840F08060C5
:102A70002060FEF71BF8074627E090FAA0F0A9684F
:102A8000B0FA80F08140E8684FF4003292FAA2F286
:102A90000009B2FA82F2904001432069124AE1E74C
:102AA000286902EB50004FF4C00292FAA2F2B2FA87
:102AB00082F29040014320690C4AD3E7FDF7F6FF0C
:102AC000C01B022801D9032606E020680001F5D5C5
:102AD0002069A969084320613046BDE8F081000003
:102AE00000100240FF80FFF9FF80FDFFFF809FFF85
:102AF0002DE9F0414A4C06468846E06800258107EA
:102B000030684FF0700312D0E16801F00301814298
:102B10001BD1D0B1E06893FAA3F100F07000B1FAD4
:102B200081F1C8407168401C88420ED122E0012822
:102B300004D0022805D0032807D108E021688907BE
:102B400001E021684905002907DB012564E02168CF
:102B5000890302D421684903F5E7E16893FAA3F3F6
:102B600021F073027168B3FA83F3491E99400A4356
:102B70000243E260206820F080502060FDF796FF5D
:102B8000074604E0FDF792FFC01B02283BD82068EF
:102B90008000F7D44FF4FE4191FAA1F1B068B8F18A
:102BA000000FB1FA81F100FA01F019D031694FF04C
:102BB000FF3202EB51014FF0C06292FAA2F2B2FA78
:102BC00082F2914008436169164A114008436061EE
:102BD000206840F080502060FDF768FF074614E051
:102BE000F1684FF4003292FAA2F20909B2FA82F2C5
:102BF0009140084361690C4AE7E700BFFDF756FFC3
:102C0000C01B022801D9032506E020688000F5D505
:102C100060697169084360612846BDE8F081000081
:102C200000100240FF80FFF9FF80FDFFF8B51C4D4A
:102C300006460024A86DC00002D5FEF7F7FA0DE0A5
:102C4000A86D40F08050A865A86D00F080500090FD
:102C5000FEF7ECFAA96D21F08051A965B0F5007F6F
:102C600004D0802E07D94FF003040AE0802E08D943
:102C7000A02E01D804E001D1022402E0702E00D180
:102C800001240848016821F0070121430160006820
:102C900000F00700A04201D00120F8BD0020F8BDDF
:102CA000001002400020024000B58BB04FF480704D
:102CB00009904FF080300590002269460D48FFF7DB
:102CC00081F920B1FDF72AFB0BA0FDF72DFB094888
:102CD0000068C16801F0800161F4C071C160292001
:102CE000FEF72DFA002203212920FEF733FA0BB05C
:102CF00000BD0000B4000020412053205800000017
:102D000090F82010012919D0012180F8201002220A
:102D100080F821200368CA225A62036853225A624B
:102D20000268936823F4805393600368FF225A6219
:102D300080F82110002180F8201070470220704791
:102D400090F82010012919D0012180F820100222CA
:102D500080F821200368CA225A62036853225A620B
:102D60000268936843F4805393600368FF225A62B9
:102D700080F82110002180F8201070470220704751
:102D80000148FFF739B80000B4000020010901EB49
:102D9000810100F00F0000EB4100C0B2704700213C
:102DA00002E00A38C0B2491C0A28FAD2090740EAF0
:102DB0001160704770B5514C88B054F8580F40F00E
:102DC00080502060206800F080500690FEF736FAB0
:102DD00054F8380F20F4407040F480702060206870
:102DE00040F4004001C4206840F0010044F8940918
:102DF000032302205FF0010290FAA0F1B1FA81F101
:102E000041F06001B2EB511F01D1216818E090FA46
:102E1000A0F1B1FA81F141F06001B0EB511F02D194
:102E2000D4F890100CE090FAA0F1B1FA81F141F0E1
:102E30006001B3EB511F02D1D4F8941000E0E169B6
:102E400090FAA0F5B5FA85F505F01F0502FA05F52B
:102E50002942D1D02B4C2A480026C4E900067F2005
:102E6000A060FF20E060A6614FF40010E6612061E1
:102E70002046FFF749F820B1FDF750FA22A0FDF7F0
:102E800053FA234D012205A9E8788DF81700A87898
:102E90008DF8150068788DF81600E8798DF8140023
:102EA0001848FFF763F920B1FDF738FA19A0FDF7CC
:102EB0003BFAA8798DF8000068798DF8010028792F
:102EC0008DF802000396012269460E480496FFF72A
:102ED000BBF920B1FDF722FA10A0FDF725FA206812
:102EE000016C21F001010164016C21F00801016411
:102EF0000448FFF727FA08B070BD00000010024038
:102F000000280040B40000205254204920580000FE
:102F1000000000204420492058000000542049208F
:102F20005800000038B504462A48FFF7E9FE294951
:102F3000012224312046FEF7BBFF0122264920460C
:102F4000FEF794FF2448A0F116040178E17182781D
:102F500062704378A370C078E07000901D481FA194
:102F60005A3800F045FBE07908280ED2DFE800F07F
:102F70000D04081D2125292DFDF7D0F91CA002E024
:102F8000FDF7CCF91BA0FDF7CFF94FF4FA742046FA
:102F9000FDF75AFC0F48224601215A38FDF702FA84
:102FA000BDE838400B48FFF7CBBEFDF7B7F912A0DC
:102FB000E9E7FDF7B3F912A0E5E7FDF7AFF911A0D6
:102FC000E1E7FDF7ABF911A0DDE7FDF7A7F910A0E8
:102FD000D9E70000B4000020160000202025303280
:102FE000752F253032752F253032752000000000F6
:102FF00053554E004D4F4E005455455300000000B0
:1030000057454400544855520000000046524900BC
:103010005341540070B504460068C168490614D491
:103020004FF0FF31C160FDF741FD05464FF47A7660
:1030300007E000BFFDF73AFD401BB04201D9032075
:1030400070BD2068C0684006F4D5002070BD000047
:1030500038B5044601220E49FEF72AFF01220D4928
:103060002046FEF703FF0A490A4816388C78047197
:103070004B7843710A788271054807A1883800941B
:1030800000F0B6FABDE8384001488838FDF74CB981
:10309000D80000201600002025303275253032750A
:1030A00025303275000000007047FDF7F1BE0000CA
:1030B00010B598B0142111A8FDF789F8442168468D
:1030C000FDF785F814200090012002906021002473
:1030D0000690CDE907410221CDE90A100C90282085
:1030E0000D9007200E900420CDE90F016846FEF7F1
:1030F000C3FB00B1FEE70F2011900320CDE91204BD
:103100001494042111A81594FEF778FA00B1FEE793
:10311000094CA06D40F08050A065A06D00F080507B
:1031200016902015FEF748F800B1FEE7A06D20F0DC
:103130008050A06518B010BD001002400D48016815
:1031400041F4700101600C48016841F00101016027
:10315000002181600268094B1A4002608214C2603B
:10316000026822F48022026081610249C003803932
:103170000860704788ED00E000100240FFFFF6EAAB
:103180000148FEF7BDBD0000B4000020FEE70000CE
:103190002DE9F0411D46FDF7C9F9FE4C062D7DD203
:1031A000DFE805F0034FA3F6F4F32078FA4DC107EA
:1031B000C90E00F0020241EA825100F0040241EA25
:1031C000025300F008000343F2482A4600213C382D
:1031D000FDF770FF2079C107C90E00F0020241EA35
:1031E000825100F0040241EA025300F00800034358
:1031F000E8482A4602213C38FDF75CFF207AC107E7
:10320000C90E00F0020241EA825100F0040241EAD4
:10321000025300F008000343DE482A4604213C38EC
:10322000FDF748FF207BC107C90E00F0020241EA0A
:10323000825100F0040241EA025300F00800034307
:1032400050E02078D54DC107490E00F0020241EA56
:10325000023100F0040241EA822100F0080041EA54
:103260008003CC482A4600213C38FDF723FF207913
:10327000C107490E00F0020241EA023100F00402E7
:1032800041EA822100F0080041EA8003C1482A4651
:1032900002213C38FDF70EFF207A00E0A3E1C107D0
:1032A000490E00F0020241EA023100F0040241EA54
:1032B000822100F0080041EA8003B6482A46042132
:1032C0003C38FDF7F7FE207BC107490E00F00202F3
:1032D00041EA023100F0040241EA822100F00800D4
:1032E00041EA80032A4606211DE12078AC4DC10742
:1032F000090C00F0020241EA027100F0040241EA06
:10330000826100F0080041EAC023A2482A46002159
:103310003C38FDF7CFFE2079C107090C00F002020E
:1033200041EA027100F0040241EA826100F0080003
:1033300041EAC02397482A4602213C38FDF7BAFEED
:10334000207AC107090C00F0020241EA027100F084
:10335000040241EA826100F0080041EAC0238D487E
:103360002A4604213C38FDF7A5FE207BC107090C45
:1033700000F0020241EA027100F0040241EA8261B7
:1033800000F0080041EAC023ACE7D2E05FE0FFE7CD
:1033900020786FF04045C10700F0080041EAC063A3
:1033A0007C482A4600213C38FDF784FE2078AE0098
:1033B00000F00203C0F38000034376483246012147
:1033C0003C38FDF777FE20792A46C10700F0080057
:1033D00041EAC0636F4802213C38FDF76BFE20795B
:1033E000324600F00203C0F3800003436948032122
:1033F0003C38FDF75FFE207A2A46C10700F008003E
:1034000041EAC063634804213C38FDF753FE207A4B
:10341000324600F00203C0F3800003435D480521FB
:103420003C38FDF747FE207B2A46C10700F0080024
:1034300041EAC063574806213C38FDF73BFE207B3C
:10344000324600F00203C0F3800003436AE02078B4
:103450006FF0407600F00201090600F0040041EA36
:1034600080534C48324600213C38FDF723FE20684B
:10347000042505EA500100F0010041EAC003454877
:10348000B7153A4601213C38FDF714FE2079324643
:1034900000F00201090600F0040041EA80533D48B3
:1034A00002213C38FDF706FE60683A4605EA500105
:1034B00000F0010041EAC003364803213C38FDF723
:1034C000F9FD207A324600F00201090600F00400FE
:1034D00041EA80532F4804213C38FDF7EBFDA068FA
:1034E0003A4605EA500100F0010041EAC0032948CC
:1034F00005213C38FDF7DEFD207B324600F002015D
:10350000090600F0040041EA8053224806213C38B5
:10351000FDF7D0FDE0683A4605EA500100F00100F1
:1035200041EAC0030721BDE8F0411A483C38FDF7E5
:10353000C1BD20781B4DC107890B00F0020241EA92
:10354000C21100F0040241EAC21100F0080041EA91
:10355000C05310482A4600213C38FDF7ABFD2079C6
:10356000C107890B00F0020241EAC21100F0040217
:1035700041EAC21100F0080041EAC05305482A465A
:1035800002213C38FDF796FD207AC107890B00F037
:10359000020209E028010020E7FF3FFF9FCFFFFF65
:1035A000FF3FFFCFFFFCFDFB41EAC21100F0040228
:1035B00041EAC21100F0080041EAC0532A46042142
:1035C0000A48FDF777FD207BC107890B00F0020256
:1035D00041EAC21100F0040241EAC21100F0080001
:1035E00041EAC0537EE6BDE8F0810000EC00002017
:1035F0000FB4084B10B504A902AA039800F01CF8F8
:10360000044602A9002000F0BBF9204610BC5DF87A
:1036100014FB00008139000802E008C8121F08C12D
:10362000002AFAD170477047002001E001C1121F43
:10363000002AFBD1704700002DE9FF4F8BB0884670
:103640000546002606E025280BD0DDE90D1290473F
:103650006D1C761C28780028F5D10FB0304600F09C
:1036600063B90024A146A2460122AE4900E004430A
:1036700015F8013F203B02FA03F00842F7D1287801
:103680002A2810D06FF02F022878A0F130010929E4
:1036900015D809EB890102EB410144F0020400EB6B
:1036A00001096D1CF0E758F8041B5FEA010903D516
:1036B00044F40054C9F1000944F002046D1C287858
:1036C0002E2817D115F8010F44F004042A280ED033
:1036D0006FF02F022878A0F1300109290AD80AEBEF
:1036E0008A0102EB410100EB010A6D1CF2E758F878
:1036F00004AB6D1C28786C280FD006DC4C2817D042
:1037000068280DD06A2814D104E0742810D07A28D3
:103710000FD10DE044F400140AE044F4801401E0F9
:1037200044F440146978814202D104F580146D1C80
:103730006D1C2878692865D006DC00288DD06328A8
:1037400027D0642806D15DE06E2808D073282AD0DF
:10375000752877D0DDE90D129047761CE0E0C4F3C0
:103760000250022809D003280DD0D8F800100428F0
:103770000DD00E6008F10408D2E0D8F80010F2175E
:10378000C1E90062F6E7D8F800100E80F2E70E708B
:10379000F0E718F8041B8DF8001000208DF80100E8
:1037A000EB46012003E058F804BB4FF0FF306107FF
:1037B0004FF0000701D40AE07F1C57450DDA87421D
:1037C000FADB1BF807100029F6D106E07F1C8742C0
:1037D000FCDB1BF807100029F8D1DDE90D23A9EB6C
:1037E00007008146214600F0B4F83044C61904E0D1
:1037F000DDE90D121BF8010B90477F1EF8D2214620
:10380000484688E058F8040BC4F302514FF00A0B05
:10381000032900D100B2042900D140B2002802DA05
:1038200040422D2102E0210505D52B218DF82410E1
:10383000012104E006E0E10710D02021F6E708AFFF
:10384000089113E058F8040BC4F302514FF00A0B2F
:10385000032900D180B2042900D1C0B20021EEE7D3
:103860005946FCF7BFFC303107F8011D0028F7D19D
:10387000ADEB070000F1200B600702D524F4803483
:1038800001E04FF0010ADA4502DDAAEB0B0000E08F
:103890000020824600EB0B0108980144A9EB0100CF
:1038A0000A90E00306D4DDE90D2321460A9800F0D2
:1038B00050F806444FF0000908E009A911F8090082
:1038C000DDE90D12904709F10109761C0899894537
:1038D000F3DBE0030CD5DDE90D2321460A9800F067
:1038E00038F8064404E0DDE90D1230209047761CDC
:1038F000BAF10001AAF1010AF5DC05E0DDE90D12DB
:1039000017F8010B9047761CBBF10001ABF1010BDE
:10391000F4DC0A982146DDE90D2300F008F806449E
:103920006D1C97E60928010030BCBDE8C08F2DE969
:10393000F041044600251E461746880404D405E0DD
:1039400039462020B0476D1C641EF9D52846BDE8D5
:10395000F0812DE9F041044600251E469046C8033B
:1039600001D5302700E02027880404D505E0414632
:103970003846B0476D1C641EF9D52846BDE8F08175
:103980000A68531C0B6010707047000008B5FE4CAD
:103990000025E57225736573A573E573A574257419
:1039A0006574FDF77DFA0020FCF76CFD0120FCF743
:1039B00069FDFFF77DFB0020FDF77EFAFCF7CCFCEC
:1039C0000120FCF74FFCFEF7A7FFF0A0FCF7ACFCD2
:1039D0004FF47A763046FCF737FFFFF7EBF9FFF745
:1039E00063F9EC48FEF738FD0022A021E948FEF714
:1039F000D9FCA0823046FCF727FF01274FF03B0A95
:103A00004FF03C094FF0180B4FF00708FCF712FC81
:103A100090B9FDF74BF8E0610AE000BFFDF746F80A
:103A2000E169401AB04203D9DA484C30FFF77AFA1C
:103A3000FCF700FC0028F1D0E07B01283CD1207885
:103A4000032838D16772207A032804D2FCF766FC79
:103A5000D04818382DE0C11E032904D2FCF75EFCC3
:103A6000CC480E3825E0062825D1E079082822D256
:103A7000DFE800F02104080C1014181CFCF74EFCC1
:103A8000C5A016E0FCF74AFCC4A012E0FCF746FC17
:103A9000C3A00EE0FCF742FCC3A00AE0FCF73EFC2A
:103AA000C2A006E0FCF73AFCC2A002E0FCF736FC3C
:103AB000C1A0FCF739FCE573607B012871D1207847
:103AC00003286FD1607A01286CD1207A072846D26A
:103AD000DFE800F0040C143D30261C002079401C67
:103AE000B0FBF9F209FB1200207138E06079401C4C
:103AF000B0FBF9F209FB1200607130E0A079401CC4
:103B0000B0FBFBF20BFB1200A07128E0E079072864
:103B100004D0401C00F00700E07120E0E7711EE0D7
:103B200060781F2804D0401C00F01F00607016E071
:103B3000677014E0A0780C2807D00D21401CB0FB62
:103B4000F1F201FB1200A07009E0A77007E0E07835
:103B50006421401CB0FBF1F201FB1200E0702079FF
:103B600000908C486379A27994A11838FFF740FD42
:103B7000E07800908748A378627890A10E38FFF72C
:103B800037FD207A032804D2FCF7C8FB8148183897
:103B90002FE0C11E032906D2FCF7C0FB7D480E387A
:103BA00027E029E027E0062825D1E079082822D25D
:103BB000DFE800F02104080C1014181CFCF7AEFB21
:103BC00075A016E0FCF7AAFB74A012E0FCF7A6FBB8
:103BD00073A00EE0FCF7A2FB73A00AE0FCF79EFBCB
:103BE00072A006E0FCF79AFB72A002E0FCF796FBDD
:103BF00071A0FCF799FB6573A07B01287ED120782A
:103C000003287CD1607A012879D1207A07285BD2F9
:103C1000DFE800F004101C5144362700207930B151
:103C2000401E90FBF9F209FB120020714CE084F871
:103C300004A049E0607930B1401E90FBF9F209FB25
:103C40001200607140E084F805A03DE0A07930B139
:103C5000401E90FBFBF20BFB1200A07134E017201A
:103C6000FBE7E079012808D0401EC11700EB517135
:103C700021F00701401AE07126E084F8078023E074
:103C80006078012808D0401EC11700EBD16121F0F7
:103C90001F01401A607017E01F20FBE7A078012881
:103CA00007D00D21401E90FBF1F201FB1200A07025
:103CB0000AE00C20FBE7E07810B36421401E90FB83
:103CC000F1F201FB1200E070207900903148637935
:103CD000A2793AA11838FFF78BFCE07800902D48C4
:103CE000A378627835A10E38FFF782FC207A03288A
:103CF00008D2FCF713FB2748183831E033E031E0F5
:103D00006320E0E7C11E032904D2FCF707FB21482A
:103D10000E3825E0062825D1E079082822D2DFE8F0
:103D200000F02104080C1014181CFCF7F7FA1AA074
:103D300016E0FCF7F3FA19A012E0FCF7EFFA18A06E
:103D40000EE0FCF7EBFA18A00AE0FCF7E7FA17A080
:103D500006E0FCF7E3FA17A002E0FCF7DFFA16A092
:103D6000FCF7E2FAA573E07A012808D165722078A1
:103D700002282BD003282ED002202070E572207B51
:103D800001284AD072E00000000000204D54335456
:103D9000413400006800002053554E004D4F4E0046
:103DA00054554553000000005745440054485552AF
:103DB000000000004652490053415400253032753E
:103DC0002530327525303275000000004848FEF776
:103DD000B7FF2570D2E7207A401CB0FBF8F208FB51
:103DE00012002072FCF79AFA207A0728C6D2DFE880
:103DF00000F004060A12100E0C003EA000E03FA0E6
:103E0000FCF792FABAE73FA0FAE73FA0F8E740A034
:103E1000F6E741A0F4E742A0F2E7657220780328B4
:103E200023D1207A80B1401E90FBF8F208FB1200EB
:103E30002072FCF773FA207A072816D2DFE800F028
:103E400006080A12100E0C000620F1E729A00AE06D
:103E50002AA008E02BA006E02BA004E02CA002E0A2
:103E60002DA000E02EA0FCF75FFA2573207C01282E
:103E70000AD1207803280BD0FCF750FA1DA0FCF7DC
:103E800053FA032020702574607C012808D00AE0D2
:103E900025722570FEF78EFF1548FEF751FFF2E7F9
:103EA00004202070657420780528BFF4AFADDFE8EA
:103EB00000F00304121B0800A8E50D48FFF732F8D4
:103EC00007E00B48FCF74AFC18B10020FCF712FB96
:103ED000FEE725709AE50648FCF7AEFB2570E07A10
:103EE0000128E9D1E57291E50148FEF709FF8DE56A
:103EF000B400002053454353000000004D494E5389
:103F0000000000004852530057444159000000008F
:103F100044415445000000004D4F4E5448000000FD
:103F2000594541520000000000FE1467001D14476F
:103F3000009D009C003F00FA1400005341980019B6
:103F4000485A095A005F00FC015F01FC00AF1404ED
:103F5000005BC018815AC9005800C005005F0042CC
:103F600000F5006700EA00AF00BF004600FF00EF69
:103F70000400000106070817090001000200040000
:103F800020000800000000000000000001020304FF
:103F900006070809A0860100400D0300801A0600EC
:103FA00000350C0040420F0080841E0000093D00D7
:103FB00000127A000024F40000366E010048E80187
:103FC000006CDC02E43F000800000020500000000C
:103FD000183600083440000850000020E8040000B3
:103FE0002836000800010A18000000010000000047
:103FF00000000000000000000000000000000000C1
:104000000000000000000400B80B0000B80B000026
:10401000000400480010004800000048000000486C
:1040200000000048000000480000004800000000B8
:0440300000093D0046
:040000050800019D51
:00000001FF
